:0E0000000C9456000C9400000C9400000C941C
:10000E0000000C9400000C9400000C9400000C9462
:10001E0000000C9400000C9400000C9400000C9452
:10002E0000000C9400000C9400000C9400000C9442
:10003E0000000C9400000C9400000C9400000C9432
:10004E0000000C9400004E51555457504FC042447E
:10005E00484E424448C04E5153575F5F5FC04249BD
:10006E004641464844C04E51515F5B5B5FC04E50A7
:10007E00505E5B5B5FC0404A4040514E40C055737E
:10008E00657220646566696E65640A6368617220D4
:10009E00303A000080C002006001A2000000F89417
:1000AE00EE27ECBBF1E0FBBFEBBFE5BFF8E1F1BD26
:1000BE00E1BD8DE0A2E0BB27ED938A95E9F780E0E4
:1000CE0094E0A0E6ED930197E9F7E4EAF0E085917C
:1000DE009591009761F0A591B59105901590BF018E
:1000EE00F00105900D920197E1F7FB01F0CFEFE5DE
:1000FE00EDBFE4E0EEBFC0E6D1E00C948600A0E1D7
:10010E00C6D032D037D03CD041D046D04BD050D0D4
:10011E00E0E0EA93A0E07CD0ACE8B0E0A5D010E03F
:10012E00183020F4A12F8BD01F5FFACFFFCFFFCF57
:10013E00AA931A930A93EA81EE0FEE0FEE0FE06484
:10014E000E2F10E0183060F40A930395EC81FD81B8
:10015E003196EC83FD833197A49152D01F5FF2CF7D
:10016E001981088125960895E4E5F0E0FA93EA9363
:10017E00A0E023C0ECE5F0E0FA93EA93A1E01DC005
:10018E00E4E6F0E0FA93EA93A2E017C0ECE6F0E0C2
:10019E00FA93EA93A3E011C0E4E7F0E0FA93EA934E
:1001AE00A4E00BC0ECE7F0E0FA93EA93A5E005C0FB
:1001BE00E4E8F0E0FA93EA93A6E0BADF0895AA9392
:1001CE00EBB3EF70AE2FE881E07FEA2BEBBB8BE059
:1001DE008A95F1F7DA9A8BE18A95F1F7DA988BE145
:1001EE008A95F1F77DC0AA93A881E9DFE881E295AF
:1001FE00E883A881E4DF88EC90E00197F1F770C006
:10020E00AA93A981F0DFD89AA881EDDFD8980BC008
:10021E00AA93E881F0E0E05AFE4FE081A981AE0F8B
:10022E00E2DF5980488022960895A2E05BD0ACE0D0
:10023E00DADFA1E057D0E0E04E2E5E2E0895AA93AD
:10024E00A881AA3011F0571448F0E0E0EA934394E5
:10025E00A42DDEDFA881AA3009F442C05394D89AA7
:10026E00A881C1DFD8983CC0BA93AA931A93E981AA
:10027E00FA813196E983FA833197E4911E2FE030AB
:10028E0019F0A12FDCDFF3CF188123960895AA93DE
:10029E00EAB3E06FEABBD29AD09AD19ADA98D8989C
:1002AE00D9987880E881E058E0936201E881E054C3
:1002BE00E0936301A4E1B0E00E94850118D017D04D
:1002CE0016D0A0E27CDF80E991E00197F1F7A8E279
:1002DE008ADFA4E088DFA5E886DFA6E084DFA5DF5D
:1002EE002196089580DFA3E0B0E00C948501A0E391
:1002FE0066DF80E991E00197F1F70895109639F0E5
:10030E0080EA9FE00197F1F7A8951197C9F7089534
:00000001FF
