:0600000045C1FECFFDCF5B
:10000600FCCFFBCFFACFF9CFF8CFF7CF68C5F5CF46
:1000160093C4F3CFD6C4C3C3F0CFEFCFEECFEDCFAB
:100026004E51555457504FC04244484E424448C022
:100036004E51515F5F5F5FC042494641464844C0EA
:100046004E51515F5B5B5FC04E50505E5B5B5FC065
:10005600404A4040514E40C01027E80364000A0061
:1000660001000010000110000100000001FF4B69B3
:100076006E646C79204769766520796F75720061C8
:10008600757468656E7469636174696F6E00506C2F
:10009600616365207468652066696E6765720054E1
:1000A60068616E6B20796F753A20004163636573F2
:1000B600732064656E6965643A20004D656D6F72E4
:1000C600792046756C6C210044656C657465206109
:1000D6006E20494400494420617661696C61626C16
:1000E600653A200052656D61696E696E673A200057
:1000F6006661696C65642E00537563636565646546
:10010600640053617665642061743A2000506C6126
:1001160063652074686500556E6B6E6F776E204957
:1001260044004552524F5200436F6E6669726D3FEE
:100136000044656C65746564003E204D656E75000F
:1001460053656375726974793A0022476F20536D5F
:100156006172742200224F70656E20666F72206194
:100166006C6C2200224C6F636B2074686520446FB0
:100176006F72220052656765697374657220616EDD
:100186002049440044656C65746520616C6C2049A7
:1001960044730053797374656D2053746174757379
:1001A600005072657373202253656C656374220078
:1001B60049447320636F756E743A2000566F6C74F1
:1001C6006167653A2000560046505320636F756E8E
:1001D600743A0000746563684352454154494F4E72
:1001E600530055AA01004661696C656400506C6154
:1001F60063652066696E676572200028312F332992
:10020600004661696C65642E2000526573657469E9
:100216006E67204650532E0054616B65206F662032
:10022600746865200066696E6765722E0028322F35
:100236003329004661696C65642E205265736574C6
:10024600696E67200028332F332900456E726F6C64
:100256006C6D656E7420000080C001002D4E414E0D
:1002660000494E4600000100020070000200040032
:10027600720003008E01E8010200A6015E02010081
:10028600AC0160020000F894EE27ECBBF1E0FBBF86
:10029600EBBFE5BFF8E1F1BDE1BD8DE0A2E0BB2714
:1002A600ED938A95E9F780E094E0A0E6ED93019757
:1002B600E9F7ECE6F2E085919591009761F0A5915A
:1002C600B59105901590BF01F00105900D9201972B
:1002D600E1F7FB01F0CFEFE5EDBFE4E0EEBFC0E6EE
:1002E600D1E003C11A9314E1C7D7A4E7B0E044D81C
:1002F600A5E8B0E046D849D820F01A3011F0E0E081
:1003060001C0E1E051C6AA9384DC10E00AE030E0C7
:10031600B7D642D821F4B0D7A4E9B0E0D3D73FD8B6
:1003260010E0ED811E1708F04DC0E0E0E093660195
:1003360038D820F0A0916501AC3308F005C092983A
:100346009BD76BD6EBE03FC02CD808F02FD833D81C
:1003560034D851F435D821F0A0916601A63018F0B2
:100366009298E9E030C0F4CF26D830E03A3038F43D
:1003760074D50E2F083008F43AE03F5FF7CF083007
:1003860080F4929813D808D849F406D821F474D783
:10039600A5EAB0E01AD839D61CD801C071D6E02F2C
:1003A60012C0FAD721F468D7A1EBB0E00ED8A1E0CD
:1003B600B0E012D8F6D718F0E0E0E093650141D638
:1003C6001F5FAFCFECE02CDC2696089522DC10E010
:1003D60000E030E051D7E3D724D51E2F183050F077
:1003E6009298A1ECB0E0C8D7AEECB0E0FAD7FDD752
:1003F60017DC49C54AD51E2F14D50E2F3DD7ABEDB8
:10040600B0E0F6D7E01B01D8A12F4CD51E2F859B57
:10041600FECF123011F41AD613C003D53E2F301773
:1004260029F4A6EFB0E04ED70CD603C0AEEFB0E08D
:1004360049D7CFD721D7A8E0B1E0DAD7E31BE5D774
:100446009298E12FE8D7ECDB1EC5AA931A9310E029
:1004560013D7A3E1B1E090D7AEE9B0E033D795D793
:1004660031F4EFD5ADE1B1E0BCD7188103C719303F
:1004760030F0E7D5A8E2B1E0B4D71881FBC6CDD7F6
:1004860039F09ED729F0A0E08699A1E0A03009F4C2
:10049600F6CFF2D6AEE2B1E015D7BAD5879B04C047
:1004A600859B02C0869901C001C0F8CF86991AC003
:1004B60076D7E981E03061F0B5D7A981A83038F464
:1004C6001A1709F0BFD4E981EF5FE983F6CF02C0BE
:1004D600A12FB8D49298D0D6A7E3B1E0F3D6A4D58D
:1004E60078D701C0B3D51881C5C610E00FE030E05B
:1004F600A3D3A0E0B0E0E0E06BDB58D7C79902C019
:10050600929B01C053D591D795D7309729F4EFEF39
:10051600E51511F4303009F003C08FD731E001C082
:1005260030E0442009F49CC00FE04424A5D688D7C7
:10053600EF3FAFEFFA0741F5EAE0EA9386D787D7B0
:10054600A439E1E1BE0724F487D70150A2E0A3D67F
:1005560085D724F081D70150A3E09DD67DD70150E1
:1005660082D7E13011F4A6E006C07DD7E23011F45F
:10057600A5E001C0A4E08FD6E0E0EA93A1E06DD645
:10058600AFE3B1E09FD66CC0309799F4A6E4B1E032
:10059600F3D669D7E13019F4A0E5B1E008C063D716
:1005A600E23019F4ABE5B1E002C0AAE6B1E08AD6C2
:1005B60057C05DD721F4AAE7B1E084D651C05BD716
:1005C60021F4AEECB0E07ED64BC059D721F4AAE8B0
:1005D600B1E078D645C0E430A0E0FA0709F040C0A3
:1005E60052D7309739F4A9E9B1E0C6D6A7EAB1E007
:1005F60069D636C03CD741F4A6EBB1E063D6CFD678
:1006060010D447D792982CC036D7A9F4A2ECB1E003
:1006160059D61DD741D743D7AEE23DD618D7E4E623
:10062600F0E03DD714D7E1D63AD7ACECB1E04AD6E4
:1006360004D73AD715C023D799F4AEECB1E09CD6CF
:1006460036D72AD739D725D732D7E4E6F0E034D7DC
:1006560020D72DD7CAD630D71CD729D7EBD619D74E
:10066600AFD611F4DAD609F001C0A0D4879918C024
:100676000BD5879BFECFEFEFE51551F433DEE03067
:1006860019F0C3D4552401C0E1D4E1E04E2E07C0D1
:10069600D4D6539410E0E5E0E51509F455247CC062
:1006A600869949C0E0E05E160CF444C0C6D6EBD687
:1006B600339719F4E4E0E51509F014C0F5D68699E8
:1006C60003C0A0EDB7E0DCD7869908C0A2E0B0E091
:1006D600E0E0F0E075DA1150A7D403C096D4869B0B
:1006E600FECF03C092D4869BFECFAAD6309771F474
:1006F600BAD6E03011F0E13021F4A4E0B0E06CD6D7
:1007060004C0A4E0B0E0E0E063DA14C0B0D611F4AF
:100716005DDE10C0B0D619F4A0E097DE0BC0AFD6F0
:1007260019F4A1E092DE06C0E430A0E0FA0711F465
:100736001F5F83D631C044D619F4E0E05E160CF490
:1007460005C084D4EFEF5E2E78D626C024D4E130DF
:1007560019F4EFEFE51509F01FC010E084D6E1307B
:1007660089F47AD6A0E097D5E3E0EA93A1E0CBDD61
:10077600E83018F411E084D404C010E0A0EDB7E02E
:100786007FD707C070D6E23011F411E002C059D409
:1007960010E0113009F410D4A895B0CEFFCF64B0A4
:1007A60075B01895AA937894E881E06CE7B98BE167
:1007B6008A95F1F7E5B7EF78E069E5BF8895EF77B9
:1007C600E5BFF301BAC5AA937AD67DD622DA00E050
:1007D60010E030E020E030E03A3040F4A885E2DF77
:1007E60076D66627772778D63F5FF6CF70D67AD645
:1007F600233058F5A885D6DF8F017ED6EB5FFF4FF5
:100806006F4F7F4FD801F2D8F8D94CF075D6E55026
:10081600F04060407040D801E9D8F4D914F4215072
:1008260001C02F5F243038F4F801A9E0B0E010D9F8
:100836004ED667D620E060D6A9E0B0E080E090E032
:100846000CD962D6F8015DD6D3CFEC81FD81E8D90B
:1008560029960895AA932E97E0E0E883E3D533D648
:1008660056D640E054E059D65BD668F45CD6EA0F1B
:10087600FB1FFF93EF93AC89A6DFAF91BF91ED937A
:10088600FC9358D6F1CF49D64BD630F44CD656D633
:100896000E0F1F1F4FD6F8CFD801E5E0F0E0F5D8D0
:1008A6008F013BD63DD6D0F43ED648D64BD6DF0197
:1008B600E885F985AE17BF0728F035D63FD642D66C
:1008C600E887F98730D63AD63DD64E175F0720F02F
:1008D6002AD634D637D6AF012DD6E4CFFA017AD848
:1008E600DF01E885F985EE0FFF1FAE0FBF1F7DD52F
:1008F600CCD8AF0112D614D678F415D61FD622D688
:100906004E175F0738F00FD619D62E0F3F1FEE8110
:10091600EF5FEE830FD6EFCFEE817DD5D901B5D847
:100926007DD965960895E0E8E8B9E0E0E0BFE0EC3F
:10093600E7B9EBE8E6B90895AA93EA93FA93EFB715
:10094600EA9369D91BB10CB1E12FEC71B1F4E92D31
:10095600939461D5E659FE4F0083E0E1E91509F469
:100966009924A0916001AF5FA0936001A03129F4A2
:10097600E0E0E0936001689420F857D9E991EFBF71
:10098600F991E991A99118951A93E1E0E09367012D
:10099600E0916001E030E1F3E82D83943CD5E6591F
:1009A600FE4F1081E0E1E81509F48824F894E091FF
:1009B6006001E150E09360017894E0E0E093670124
:1009C600F2C2EA93FA93EFB7EA93DD2061F0DA9484
:1009D600EA2DA39420D5E658FE4FE081ECB9E0E17C
:1009E600EA1509F4AA24E991EFBFF991E99118955E
:1009F600AA93E0E1ED15E9F3F894DD2011F45D9991
:100A06000DC0EB2DB39407D5E658FE4FA881A08301
:100A1600E0E1EB1509F4BB24D39402C0E881ECB9FC
:100A260078948BC4E0E0EBB9E8EDEAB9E6E8E0BD1E
:100A3600E0E0E0BDE3E3E9B9089588D514F0E0E02D
:100A460010C005D5A93FE1E1BE0714F0E2E309C0F5
:100A560005D514F0E4E605C07ED514F0E8EC01C037
:100A6600E9EFE3BD0895E0918A01F0918B01E05E24
:100A7600FC4F76D5E0918C01F0918D01389675D5B5
:100A860079D57DD538F0ACE8B1E07DD573D504D500
:100A96002BD866D57ED573D5C8F0A8E6B1E073D558
:100AA60078D5FAD421D861D5A0916501AC3328F464
:100AB600E0916501EF5FE0936501A0916601AF3FAC
:100AC60028F4E0916601EF5FE0936601AED457D556
:100AD60028F0E0E0E0936801E093690108950A9246
:100AE6001A92FA926A937A938A939A93AA93BA93EA
:100AF600EA93FA93EFB7EA93B6DF21FC8FC06894C6
:100B060021F893D4E3E0F0E0EFD7309729F441D50C
:100B1600D29710F4E1E001C0E0E0E03011F0C298B5
:100B260001C0C29AE0916301E030D9F0A0E092DE04
:100B36006627772715D6AEE5BBE288EF9BE395D609
:100B4600E3D4E6E8FCEB6FEA7FE31DD83CD6A0E0F1
:100B5600B0E08AE794E489D6A1E6B1E0CAD5ED9380
:100B6600FC93A0916401A73019F4C09A66DF4FC0C8
:100B76006ED4AD37E5E1BE072CF0E5E00FD5C09A9F
:100B8600E0E044C0E3D4ACF0E0916401E03029F445
:100B9600C09AE0EAE3BDE2E009C0C09B06C0C09887
:100BA600E1E0FCD4E0E0E3BD03C0E1E0E0936401F2
:100BB6002EC0D1D46CF0C09A4AD4A539E1E1BE0763
:100BC60014F0E2E001C0E3E0E093640136DF1FC009
:100BD6003ED4A93DEEE0BE076CF0C09907C0C09AAE
:100BE600A0916401A33011F0E8ECE3BDE3E0D6D4B4
:100BF60024DF0DC0A0916401A33021F4C09AE4E083
:100C0600CDD405C0C09AE3E0C9D4E2EDE3BDE091DE
:100C16006701E03009F4A895E89421F8E991EFBF5F
:100C2600F991E991B991A9919991899179916991EE
:100C3600F990199009901895B4D4E0E0B5D473DE14
:100C4600A0E152D3EFDEB4D2B8D2BCD2C0D2C4D265
:100C5600C8D2E0E0E0936701B89AC098B99AC19803
:100C6600BA9ABA9ABB9ABF9AC798A098A898E1B3BD
:100C7600EF71E1BBE2B3E06EE2BB8898899A909887
:100C8600919A8A9A92988B989398E0E0E2BDEBE766
:100C9600E5BDE0E0E4BDEFE7E3BDE4E0E3BFE0E0AF
:100CA600E2BFE9B7E160E9BFE7D2E1E07DD4C29AED
:100CB600E7E074D4EFE1E1BDEFE0E1BD7894AAEDA1
:100CC600B1E000D3F1D372D3E2E068D4D5D2AAE082
:100CD6006ED4A8C153D71BD4E0E066D46AD444309E
:100CE600E0E05E07A8F4FA01EE56FE4FDF01EE8162
:100CF600EC93AE81BF8188859985E0E0F1E060E004
:100D060070E0C8D6EE83FF836887798755D4E7CF2E
:100D1600EA85E0939601EB85F070EA87FB87EA8522
:100D2600E093970146D44A30E0E05E0738F447D4B2
:100D3600EC9171D30E0F1F1F3FD4F5CFE02FE09338
:100D46009801012F11270093990133D44C30E0E02C
:100D56005E0728F434D4AC914BDE2ED4F7CF29D4D9
:100D66004C30E0E05E0748F40FDE2E2F3327FA0101
:100D7600E656FE4F208320D4F3CFE1E015D44ED7BC
:100D860045C0AA93E2E1F0E01FD421D425D4D5C210
:100D960008D4E1E0F0E002C0E2E0F0E0FA93EA9382
:100DA60020D41AD40895F4DF14D3F6DF0895E6D6D6
:100DB6002897E0E0E88336D386D3E0E0EC83ED8342
:100DC600EE83ABD3E885F98511D4E0E0D2D6C7D659
:100DD600A430E0E0BE07E0E08E07E0E09E07A8F45E
:100DE600E881F981E256FE4FA081E1D3E881EE0F5A
:100DF600EE0FEE0FFBD5E2D56AD36ED3F9D3EF5FD4
:100E0600FF4F6F4F7F4FF6D3E2CF76D32C960895E0
:100E1600E6E2F0E0EBD3F0D311F0E0E001C0E1E070
:100E26000895A0E2B0E080E090E0C1DF0895AA93C3
:100E3600E1E2F0E0C9D3CBD3DFD311F0E0E001C0AB
:100E4600E1E07BC2AA93E0E4F0E0BED3C0D3D4D302
:100E560011F0E0E001C0E1E070C231D334D3ABD28F
:100E6600ACD2F1F3A1E5B0E080E090E0A0DFC2D320
:100E7600A0E087DFC5D331F4FFD1ACEEB1E022D2DA
:100E8600E5E101C0E881249608951A9310E010E088
:100E9600183038F4A12FCBDFE03009F484C01F5F8F
:100EA600F7CF81C0AA93E8D1A4E0DBD0ADD3A1E00F
:100EB600B2E067D280D281D229F4859902C0E2E0FD
:100EC6003CC2F9CF86D2E2E2F0E07ED380D3E3E201
:100ED600F0E08CD395D341F4CFD1A7E0B2E04CD269
:100EE600A0E1B2E094D329C274D295D398D365D247
:100EF60029F0859902C0E2E020C2F9CFBDD1C0D069
:100F060083D3A3E3B2E03DD258D229F4859902C037
:100F1600E2E013C2F9CF5DD2E4E2F0E067D370D32A
:100F260029F481D3A9E1B2E072D307C252D273D3B6
:100F360076D343D229F0859902C0E2E0FEC1F9CF0B
:100F46009BD19ED061D3ABE4B2E04BD236D229F42A
:100F5600859902C0E2E0F1C1F9CF3BD2E5E2F0E0CB
:100F660045D34ED329F45FD3A9E1B2E050D3E5C10E
:100F760030D251D354D321D229F0859902C0E2E070
:100F8600DCC1F9CFA0E0FDDE77D1A1E5B2E09AD1D0
:100F96008BD2E1E0D2C11A9310E0A1E048D3E0E0A1
:100FA6008399E1E01E2FE12F19910895A0E0B0E0AA
:100FB600E0E00ED6E9BFFFCFA2E0B0E0F1D5319672
:100FC600FFD5319744D2A03AEFE0BE0714F414D00F
:100FD60012C0A0E0B0E0E1E0FBD5E9B7EE7FE9BFE3
:100FE600E9EFE3BDC79AACEDB5E04AD3C798E9B7D8
:100FF600E160E9BFA8950895E4E8F3E01AD321D3A8
:1010060018D322D3ECE2F1E026C020D31AD323C0B2
:101016001DD31CD3A4EFB1E022C0C19A45D2C1981A
:10102600ACE2B1E02DD3089511D3A6E4C0D249D0E5
:10103600B8D20CD3AEEEB2E044D008D305D3AAEFB3
:101046000DC002D303D3A8ECB2D271D0E8EBFBE01B
:10105600BBD2E0E9F1E0FA93EA93A8ECB0E067D0FE
:101066000895AA93A881A13050F0C19AABE4DFD2CB
:10107600C198ABE4DCD2E881E150E883F3CF5DC1EF
:10108600C19A8FD2C1980895ECE2F1E09DD2A2E315
:101096008ED217D0A4E1CBD2D7D2A2E388D211D078
:1010A6000895D7D2A881B981A4D554F48CEC97E0E1
:1010B6000197F1F7E881F9813197E883F983F2CF57
:1010C600D9C0C7D2FCD1FFD1EE81FF817DD2A8E382
:1010D600B1E348D1C1D278D2A4E0B1E039D1BCD2D3
:1010E600662777273DD3A0E0B4E284E799E40BD4E2
:1010F60081D2E2E8EFBDE9E1EEBD7AD2FAD26AD456
:1011060063D2A8E5B2E024D1F7BDE6BDE0E9F1E09F
:10111600FBBDEABDAC81BD81C4DFE0E0EFBDEEBD45
:10112600E0E0F0E0F7BDE6BDC1982896089591D2BB
:1011360070D510E002E3A885B985EE81FF81EA1B30
:10114600FB0BDF018CD2A1D49F0110E010179CF499
:10115600A12FB0E0A7FDBFEFF9017AD4A885B98524
:10116600EA0FFB1F31D27BD2AE81BF817BD4DF0178
:10117600A8DF1F5FEBCF54D52A960895AA934BD5C7
:10118600EA81EE0FEE0FEE0FE0640E2F10E018303E
:1011960060F40A930395EC81FD813196EC83FD831F
:1011A6003197A49155D01F5FF2CF3CD5259608956F
:1011B600E6E2F0E009D2A0E018C0E6E3F0E004D2EF
:1011C600A2E013C0EEE3F0E0FFD1A3E00EC0E6E438
:1011D600F0E0FAD1A4E009C0EEE4F0E0F5D1A5E034
:1011E60004C0E6E5F0E0F0D1A6E0C8DF0895AA93D2
:1011F600E881E07111F0AA9A01C0AA98E881E0722C
:1012060011F0AB9A01C0AB98E881E07411F0AC9A8A
:1012160001C0AC98E881E07811F0AD9A01C0AD98B4
:1012260085E08A95F1F7A99A8DE08A95F1F7A99854
:101236008DE08A95F1F781C0AA93A881D8DFE8816D
:10124600E295E883A881D3DF85E88A95F1F775C032
:10125600AA93A981F1DF08D20DC0AA93E881DBD059
:10126600EA55FE4FE081A981AE0FE6DFC980E8812D
:10127600E093AA0122960895A2E0DEDFA3E0D7D18B
:10128600ACE0DADFA1E0D8DFA3E0D1D1E0E0E09383
:10129600AA01CE2E0895AA93A881AA3021F0E09142
:1012A600AB01CE1660F0E0E0EA93A091AA01AF5F31
:1012B600A093AA01D2DFA881AA3009F43EC0C39444
:1012C600D3D13BC0C6D11A93E981FA813196E9831D
:1012D600FA833197E4911E2FE03019F0A12FDBDF5E
:1012E600F3CF188123960895AA93A29AA39AA49A53
:1012F600A59AA19ABC9ABD9AA998C498C598E8815E
:10130600E093AB01E058E093A801E881E054E09354
:10131600A901A4E18CD1ADD1ACD1ABD1A0E267DFFC
:1013260088EC90E00197F1F7A8E286DFA4E084DF7D
:10133600A5E882DFA6E080DF9FDF2196089589D1A8
:10134600E991F99130971AF4E095F0953196089560
:1013560080D1A991B991E991F991AE17BF070CF027
:10136600FD01089576D1A991B991E991F991EA170C
:10137600FB070CF0FD010895A5DFE0E0EA93A1E08C
:101386006CCFA0DFA8EEB3E07BC1E3E0EA93A0E078
:10139600BAD71E2F18300895EC81E0300895929A3E
:1013A600F7CCA1E0B0E000D4E5300895A1E0B0E0CC
:1013B600E0E00ED40895A1E0E4CC2ADDE030089503
:1013C600A0E08599A1E0A03008957CDFA02FA05D64
:1013D60062CFA8EEB3E054C1E7D3EF5FF9D3E15093
:1013E600089570DFA0EDB7E04BC1EAE0F0E00895A4
:1013F60069DFA12FA05D4FDFE0E0EA93A1E02DDFDA
:10140600AAEEB0E05FDFE8E00895E05DAE2F43DFCF
:10141600A0EDB7E035C1F0E00895A0E08799A1E01E
:10142600A0300895E0E0E9830895A0916801B091A5
:1014360069010895DADF58D30895E1E04E2E089544
:10144600E52DF0E0E7FDFFEF0895A0E006CFA091BF
:101456006101B091620108950A93F7CFF8DFAD3CC0
:10146600E0E1BE070895A4E0B0E09ED30895E13020
:10147600A0E0FA070895E230A0E0FA070895E33005
:10148600A0E0FA070895A12FBB27E4E0F0E02FD3F0
:101496000895E05DAE2FFFCEE8EEF3E00895F5D2B5
:1014A600DF01A3DF24D3F5CFA4EFB1E0E9C0A2E0CA
:1014B600B0E076D3DF010895D5D2DF01BBCF249704
:1014C600E0E0E883AFCFE0E0EA83EB830895AC8108
:1014D600BD818E819F8108955BD2EC83FD836E83EF
:1014E6007F830895EAE0F0E060E070E0F8D2EC83F4
:1014F600FD836E837F830895EC81FD816E817F81FC
:1015060008956FD24AD2EECFDF01CB0108957FD383
:1015160000E010E020E030E00895E0E0EF83089579
:10152600AF81A5300895EF8176DFDE011A96EE0FC2
:10153600FF1F0895EF81EF5FEF830895AE0FBF1F82
:1015460005D30895E01BF10BDF01F9CE80DFA13C46
:10155600E2E1BE0708957BDFA530E0E1BE0708950E
:10156600E0938A01F0938B010895E0938C01F09348
:101576008D010895A0918A01B0918B010895A83E2E
:10158600E3E0BE070895ED91FD913196FE93EE934B
:101596000895A0918C01B0918D010895E0936401A6
:1015A6000895A4E6B0E06CC0E09363010895B0E04E
:1015B600089540E050E008954F5F5F4F0895AEE80C
:1015C600B1E0A40FB51F0895FA93EA930895EA814E
:1015D60022DF07D299DF7ECBA091A401E0E30BD2F4
:1015E6000895A0E0B0E080E090E074CBEDDFF9CFA5
:1015F600B1D20895B9D20895E0919E01E0300895E0
:10160600A091A401A1330895A3EFB1E0B5CE5ADEAF
:10161600CADBE0E0089530DEAEE1B2E0ADCEABE28B
:10162600B2E050DEF2CC28DEA9E3B2E0A5CEBFDF01
:1016360027C0CADFECE2F1E0C7DFA8ECB8DF77DD50
:10164600B0CFE8EBFBE00895FCDFBECFE0E9F1E0C8
:10165600BBCFBA93AA930895EE83FF830895E02F34
:10166600F0E0E7FDFFEF0895C49AA881E5DDC49890
:101676000895A0E3BCDD88EC90E00197F1F70895AA
:10168600109639F080ED97E00197F1F7A89511973C
:10169600C9F70895552342F4503811F4E0FF04C009
:1016A6003196691F791F6BF050E8572711F45F9345
:1016B600CAC05F3F31F0660F000C57956795752FCE
:1016C60008955F9300200AF0CAC0C3C050E8192EDF
:1016D6001522880F991F9527550F879550E8072ED5
:1016E6000522660F771F7527550F6795089568942D
:1016F60001C0E8945F93F2DF703818F07F3F08F47A
:10170600A2C056E1571BAAF4519558300EF4593031
:1017160030F0EFEFFFEF6FEF7FE777F91AC077272B
:101726005523B9F0EE0FFF1F661F771F5A95D1F7A5
:1017360010C07727583028F0EF2FF62F672F585014
:10174600F9CF552331F076956795F795E7955A9534
:10175600D1F700200AF42AD15F910895689401C058
:10176600E894309760407040B1F0002426F077236B
:1017760012F400941BD1172E7EE1112032F07A95D7
:10178600EE0FFF1F661F111CF9CFEF2FF62F612DED
:101796005F938ADF5F9108954F93AF01FD01DA01F0
:1017A600AB01BC01CA01402D012C142E4F910895A6
:1017B600EA0FFB1F681F0895E095F0956095EF5FAF
:1017C600FF4F6F4F08955F9381DF903849F150E8DE
:1017D6001526703821F1572F591B2BF112F4DCDF37
:1017E600FACF583118F0AA27BB278827583028F097
:1017F600AB2FB82F88275850F9CF552329F0869557
:10180600B795A7955A95D9F7502D512572F0D0DF87
:1018160038F46795F795E795739513F420C0BCDF08
:1018260043DF5F910895D8F7FBCFEA1BFB0B680BEC
:1018360051F010F40094C0DF662392F3EE0FFF1F01
:10184600661F7A95CBF7EE27FF27662777275F91E6
:101856000895EFEFFFEF6FE77FEF5F910895EFEFEA
:10186600FFEF6FE77FE75F9108955F932FDF703893
:1018760051F3903841F301240894791F23F41CF3A3
:1018860000203AF3ECCF0F921F932F933F934F9381
:10189600112722279927689FA0018F9F302D410D80
:1018A600591F6B9F300D411D591F8E9F27D0BF9F1B
:1018B60025D06A9F23D0BE9F1DD0AF9F1BD0AE9F61
:1018C600110D291F391F491F591FE32FF42F652FAB
:1018D600522F4F913F912F911F910F9066232AF01F
:1018E600550FEE1FFF1F661F02C073954BF2D2DE27
:1018F6005F910895100D211D391F02C0200D311D65
:10190600491F591F08955F93E1DE703821F41120B5
:101916000AF49FCFA4CF903809F495CF01240894F8
:10192600970B1BF4D4F30020F3CF792F1F932F933B
:101936003F934F93112411272227332744275527F6
:1019460090E2AE17BF078607410730F0AE1BBF0B0C
:10195600860B410B089401C08894551F221F331F24
:10196600111CAA1FBB1F881F441F9A9551F7F90126
:10197600612D4F913F912F911F91662332F0550FA4
:10198600EE1FFF1F661F7A9543F284DE5F9108956E
:10199600EA0FFB1F681F791F0895AE0FBF1F861F32
:1019A600971F0895F195E195F0400895F09560959B
:1019B6007095E195FF4F6F4F7F4F0895EE230E2EE2
:1019C600FD01BC0131F0EE0FFF1F661F771F0A9461
:1019D600D1F70895EE0FFF1FEE0FFF1FEE0FFF1F4B
:1019E60008956F2F660F660B762F08958B2F880F3D
:1019F600880B982F0895EA17E1E009F0EE2708957D
:101A0600FA9FF02DEB9FF00DEA9FE02DF10D089562
:101A16007A9F702D6B9F700DF89F700DE99F700D6A
:101A26006A9F602D710DFB9F600D711DE89F600D13
:101A3600711D8827FA9FF02D610D781FEB9FF00D21
:101A4600611D781FEA9FE02DF10D681F781F08952C
:101A56005CD0D6DF0EF4A6DF089565D0D9DF0EF48C
:101A6600A5DF08950024112490E1AA0FBB1F001CD6
:101A7600111C0E1A1F0A18F40E0E1F1E01C0A160BB
:101A86009A9599F7FD01D00108953FD0EBDF0EF44A
:101A960089DF08953F934F935F93002411244427D1
:101AA600552730E2AA0FBB1F881F991F001C111C67
:101AB600441F551F0E1A1F0A460B570B28F40E0E0D
:101AC6001F1E461F571F01C0A1603A9559F7FD0119
:101AD600BC01D001CA015F914F913F91089523D077
:101AE600D9DF0EF463DF0895BDDFFD010895E894A4
:101AF600B7FF04C0A095B09511966894F7FD52DF24
:101B0600B1DFFD010EF44EDF0895E894F7FF02C041
:101B160049DF6894B7FF06C0A095B095119600F806
:101B2600039400FA0895E89477FF02C03FDF6894B3
:101B360097FF0BC00024A095B095809590951196BF
:101B4600801D901D00F8039400FA0895ED91FC9114
:101B560011970895E881F9816A817B810895A881AA
:101B6600B9818A819B810895E883F9836A837B839F
:101B76000895E883E983EA83EB8308959A938A9329
:101B8600BA93AA930895182E862F612D192E972F92
:101B9600712D1B2EBF2FF12D1A2EAE2FE12D08957C
:101BA600119602D0FE2F1197E199FECFFF93FFB752
:101BB600F894AEBBBFBBE09AEDB3FFBFFF910895AB
:101BC60007D01196EF93EF2F03D0EF911197089559
:101BD600E19B02C0A895FCCF9FB7F894AEBBBFBBF4
:101BE600E09A8DB3E81719F0EDBBE29AE19A9FBF30
:101BF600089500240A160B060895EA17FB076807DE
:101C060079070895AE17BF078607970708955A9371
:101C16004A933A932A931A930A9308955D814C81C5
:101C26003B812A81198108810895099119910895A6
:00000001FF
